{
  "contractName": "Collection",
  "abi": [
    {
      "inputs": [
        {
          "internalType": "address",
          "name": "owner",
          "type": "address"
        },
        {
          "internalType": "string",
          "name": "name",
          "type": "string"
        },
        {
          "internalType": "string",
          "name": "symbol",
          "type": "string"
        }
      ],
      "stateMutability": "nonpayable",
      "type": "constructor"
    },
    {
      "anonymous": false,
      "inputs": [
        {
          "indexed": true,
          "internalType": "address",
          "name": "owner",
          "type": "address"
        },
        {
          "indexed": true,
          "internalType": "address",
          "name": "approved",
          "type": "address"
        },
        {
          "indexed": true,
          "internalType": "uint256",
          "name": "tokenId",
          "type": "uint256"
        }
      ],
      "name": "Approval",
      "type": "event"
    },
    {
      "anonymous": false,
      "inputs": [
        {
          "indexed": true,
          "internalType": "address",
          "name": "owner",
          "type": "address"
        },
        {
          "indexed": true,
          "internalType": "address",
          "name": "operator",
          "type": "address"
        },
        {
          "indexed": false,
          "internalType": "bool",
          "name": "approved",
          "type": "bool"
        }
      ],
      "name": "ApprovalForAll",
      "type": "event"
    },
    {
      "anonymous": false,
      "inputs": [
        {
          "indexed": true,
          "internalType": "address",
          "name": "previousOwner",
          "type": "address"
        },
        {
          "indexed": true,
          "internalType": "address",
          "name": "newOwner",
          "type": "address"
        }
      ],
      "name": "OwnershipTransferred",
      "type": "event"
    },
    {
      "anonymous": false,
      "inputs": [
        {
          "indexed": true,
          "internalType": "address",
          "name": "from",
          "type": "address"
        },
        {
          "indexed": true,
          "internalType": "address",
          "name": "to",
          "type": "address"
        },
        {
          "indexed": true,
          "internalType": "uint256",
          "name": "tokenId",
          "type": "uint256"
        }
      ],
      "name": "Transfer",
      "type": "event"
    },
    {
      "inputs": [
        {
          "internalType": "address",
          "name": "to",
          "type": "address"
        },
        {
          "internalType": "uint256",
          "name": "tokenId",
          "type": "uint256"
        }
      ],
      "name": "approve",
      "outputs": [],
      "stateMutability": "nonpayable",
      "type": "function"
    },
    {
      "inputs": [
        {
          "internalType": "address",
          "name": "owner",
          "type": "address"
        }
      ],
      "name": "balanceOf",
      "outputs": [
        {
          "internalType": "uint256",
          "name": "",
          "type": "uint256"
        }
      ],
      "stateMutability": "view",
      "type": "function",
      "constant": true
    },
    {
      "inputs": [
        {
          "internalType": "uint256",
          "name": "tokenId",
          "type": "uint256"
        }
      ],
      "name": "getApproved",
      "outputs": [
        {
          "internalType": "address",
          "name": "",
          "type": "address"
        }
      ],
      "stateMutability": "view",
      "type": "function",
      "constant": true
    },
    {
      "inputs": [],
      "name": "globalMinted",
      "outputs": [
        {
          "internalType": "uint256",
          "name": "",
          "type": "uint256"
        }
      ],
      "stateMutability": "view",
      "type": "function",
      "constant": true
    },
    {
      "inputs": [
        {
          "internalType": "address",
          "name": "owner",
          "type": "address"
        },
        {
          "internalType": "address",
          "name": "operator",
          "type": "address"
        }
      ],
      "name": "isApprovedForAll",
      "outputs": [
        {
          "internalType": "bool",
          "name": "",
          "type": "bool"
        }
      ],
      "stateMutability": "view",
      "type": "function",
      "constant": true
    },
    {
      "inputs": [],
      "name": "name",
      "outputs": [
        {
          "internalType": "string",
          "name": "",
          "type": "string"
        }
      ],
      "stateMutability": "view",
      "type": "function",
      "constant": true
    },
    {
      "inputs": [],
      "name": "owner",
      "outputs": [
        {
          "internalType": "address",
          "name": "",
          "type": "address"
        }
      ],
      "stateMutability": "view",
      "type": "function",
      "constant": true
    },
    {
      "inputs": [
        {
          "internalType": "uint256",
          "name": "tokenId",
          "type": "uint256"
        }
      ],
      "name": "ownerOf",
      "outputs": [
        {
          "internalType": "address",
          "name": "",
          "type": "address"
        }
      ],
      "stateMutability": "view",
      "type": "function",
      "constant": true
    },
    {
      "inputs": [],
      "name": "renounceOwnership",
      "outputs": [],
      "stateMutability": "nonpayable",
      "type": "function"
    },
    {
      "inputs": [
        {
          "internalType": "address",
          "name": "from",
          "type": "address"
        },
        {
          "internalType": "address",
          "name": "to",
          "type": "address"
        },
        {
          "internalType": "uint256",
          "name": "tokenId",
          "type": "uint256"
        }
      ],
      "name": "safeTransferFrom",
      "outputs": [],
      "stateMutability": "nonpayable",
      "type": "function"
    },
    {
      "inputs": [
        {
          "internalType": "address",
          "name": "from",
          "type": "address"
        },
        {
          "internalType": "address",
          "name": "to",
          "type": "address"
        },
        {
          "internalType": "uint256",
          "name": "tokenId",
          "type": "uint256"
        },
        {
          "internalType": "bytes",
          "name": "_data",
          "type": "bytes"
        }
      ],
      "name": "safeTransferFrom",
      "outputs": [],
      "stateMutability": "nonpayable",
      "type": "function"
    },
    {
      "inputs": [
        {
          "internalType": "address",
          "name": "operator",
          "type": "address"
        },
        {
          "internalType": "bool",
          "name": "approved",
          "type": "bool"
        }
      ],
      "name": "setApprovalForAll",
      "outputs": [],
      "stateMutability": "nonpayable",
      "type": "function"
    },
    {
      "inputs": [
        {
          "internalType": "bytes4",
          "name": "interfaceId",
          "type": "bytes4"
        }
      ],
      "name": "supportsInterface",
      "outputs": [
        {
          "internalType": "bool",
          "name": "",
          "type": "bool"
        }
      ],
      "stateMutability": "view",
      "type": "function",
      "constant": true
    },
    {
      "inputs": [],
      "name": "symbol",
      "outputs": [
        {
          "internalType": "string",
          "name": "",
          "type": "string"
        }
      ],
      "stateMutability": "view",
      "type": "function",
      "constant": true
    },
    {
      "inputs": [
        {
          "internalType": "uint256",
          "name": "tokenId",
          "type": "uint256"
        }
      ],
      "name": "tokenURI",
      "outputs": [
        {
          "internalType": "string",
          "name": "",
          "type": "string"
        }
      ],
      "stateMutability": "view",
      "type": "function",
      "constant": true
    },
    {
      "inputs": [
        {
          "internalType": "address",
          "name": "from",
          "type": "address"
        },
        {
          "internalType": "address",
          "name": "to",
          "type": "address"
        },
        {
          "internalType": "uint256",
          "name": "tokenId",
          "type": "uint256"
        }
      ],
      "name": "transferFrom",
      "outputs": [],
      "stateMutability": "nonpayable",
      "type": "function"
    },
    {
      "inputs": [
        {
          "internalType": "address",
          "name": "newOwner",
          "type": "address"
        }
      ],
      "name": "transferOwnership",
      "outputs": [],
      "stateMutability": "nonpayable",
      "type": "function"
    },
    {
      "inputs": [
        {
          "internalType": "address",
          "name": "to",
          "type": "address"
        },
        {
          "internalType": "string",
          "name": "tokenURI",
          "type": "string"
        }
      ],
      "name": "mint",
      "outputs": [],
      "stateMutability": "nonpayable",
      "type": "function"
    },
    {
      "inputs": [
        {
          "internalType": "uint256",
          "name": "tokenId",
          "type": "uint256"
        }
      ],
      "name": "burn",
      "outputs": [],
      "stateMutability": "nonpayable",
      "type": "function"
    }
  ],
  "bytecode": "0x60806040523480156200001157600080fd5b5060405162003ad338038062003ad3833981810160405281019062000037919062000567565b8181816000908051906020019062000051929190620002b5565b5080600190805190602001906200006a929190620002b5565b5050506200008d62000081620000a760201b60201c565b620000af60201b60201c565b6200009e836200017560201b60201c565b50505062000781565b600033905090565b6000600760009054906101000a900473ffffffffffffffffffffffffffffffffffffffff16905081600760006101000a81548173ffffffffffffffffffffffffffffffffffffffff021916908373ffffffffffffffffffffffffffffffffffffffff1602179055508173ffffffffffffffffffffffffffffffffffffffff168173ffffffffffffffffffffffffffffffffffffffff167f8be0079c531659141344cd1fd0a4f28419497f9722a3daafe3b4186f6b6457e060405160405180910390a35050565b62000185620000a760201b60201c565b73ffffffffffffffffffffffffffffffffffffffff16620001ab6200028b60201b60201c565b73ffffffffffffffffffffffffffffffffffffffff161462000204576040517f08c379a0000000000000000000000000000000000000000000000000000000008152600401620001fb9062000662565b60405180910390fd5b600073ffffffffffffffffffffffffffffffffffffffff168173ffffffffffffffffffffffffffffffffffffffff16141562000277576040517f08c379a00000000000000000000000000000000000000000000000000000000081526004016200026e90620006fa565b60405180910390fd5b6200028881620000af60201b60201c565b50565b6000600760009054906101000a900473ffffffffffffffffffffffffffffffffffffffff16905090565b828054620002c3906200074b565b90600052602060002090601f016020900481019282620002e7576000855562000333565b82601f106200030257805160ff191683800117855562000333565b8280016001018555821562000333579182015b828111156200033257825182559160200191906001019062000315565b5b50905062000342919062000346565b5090565b5b808211156200036157600081600090555060010162000347565b5090565b6000604051905090565b600080fd5b600080fd5b600073ffffffffffffffffffffffffffffffffffffffff82169050919050565b6000620003a68262000379565b9050919050565b620003b88162000399565b8114620003c457600080fd5b50565b600081519050620003d881620003ad565b92915050565b600080fd5b600080fd5b6000601f19601f8301169050919050565b7f4e487b7100000000000000000000000000000000000000000000000000000000600052604160045260246000fd5b6200043382620003e8565b810181811067ffffffffffffffff82111715620004555762000454620003f9565b5b80604052505050565b60006200046a62000365565b905062000478828262000428565b919050565b600067ffffffffffffffff8211156200049b576200049a620003f9565b5b620004a682620003e8565b9050602081019050919050565b60005b83811015620004d3578082015181840152602081019050620004b6565b83811115620004e3576000848401525b50505050565b600062000500620004fa846200047d565b6200045e565b9050828152602081018484840111156200051f576200051e620003e3565b5b6200052c848285620004b3565b509392505050565b600082601f8301126200054c576200054b620003de565b5b81516200055e848260208601620004e9565b91505092915050565b6000806000606084860312156200058357620005826200036f565b5b60006200059386828701620003c7565b935050602084015167ffffffffffffffff811115620005b757620005b662000374565b5b620005c58682870162000534565b925050604084015167ffffffffffffffff811115620005e957620005e862000374565b5b620005f78682870162000534565b9150509250925092565b600082825260208201905092915050565b7f4f776e61626c653a2063616c6c6572206973206e6f7420746865206f776e6572600082015250565b60006200064a60208362000601565b9150620006578262000612565b602082019050919050565b600060208201905081810360008301526200067d816200063b565b9050919050565b7f4f776e61626c653a206e6577206f776e657220697320746865207a65726f206160008201527f6464726573730000000000000000000000000000000000000000000000000000602082015250565b6000620006e260268362000601565b9150620006ef8262000684565b604082019050919050565b600060208201905081810360008301526200071581620006d3565b9050919050565b7f4e487b7100000000000000000000000000000000000000000000000000000000600052602260045260246000fd5b600060028204905060018216806200076457607f821691505b602082108114156200077b576200077a6200071c565b5b50919050565b61334280620007916000396000f3fe608060405234801561001057600080fd5b50600436106101215760003560e01c8063715018a6116100ad578063c87b56dd11610071578063c87b56dd146102f2578063d0def52114610322578063e985e9c51461033e578063f0f9e5c81461036e578063f2fde38b1461038c57610121565b8063715018a6146102745780638da5cb5b1461027e57806395d89b411461029c578063a22cb465146102ba578063b88d4fde146102d657610121565b806323b872dd116100f457806323b872dd146101c057806342842e0e146101dc57806342966c68146101f85780636352211e1461021457806370a082311461024457610121565b806301ffc9a71461012657806306fdde0314610156578063081812fc14610174578063095ea7b3146101a4575b600080fd5b610140600480360381019061013b9190611f3a565b6103a8565b60405161014d9190611f82565b60405180910390f35b61015e61048a565b60405161016b9190612036565b60405180910390f35b61018e6004803603810190610189919061208e565b61051c565b60405161019b91906120fc565b60405180910390f35b6101be60048036038101906101b99190612143565b6105a1565b005b6101da60048036038101906101d59190612183565b6106b9565b005b6101f660048036038101906101f19190612183565b610719565b005b610212600480360381019061020d919061208e565b610739565b005b61022e6004803603810190610229919061208e565b6107bb565b60405161023b91906120fc565b60405180910390f35b61025e600480360381019061025991906121d6565b61086d565b60405161026b9190612212565b60405180910390f35b61027c610925565b005b6102866109ad565b60405161029391906120fc565b60405180910390f35b6102a46109d7565b6040516102b19190612036565b60405180910390f35b6102d460048036038101906102cf9190612259565b610a69565b005b6102f060048036038101906102eb91906123ce565b610a7f565b005b61030c6004803603810190610307919061208e565b610ae1565b6040516103199190612036565b60405180910390f35b61033c600480360381019061033791906124f2565b610c33565b005b6103586004803603810190610353919061254e565b610ce3565b6040516103659190611f82565b60405180910390f35b610376610d77565b6040516103839190612212565b60405180910390f35b6103a660048036038101906103a191906121d6565b610d7d565b005b60007f80ac58cd000000000000000000000000000000000000000000000000000000007bffffffffffffffffffffffffffffffffffffffffffffffffffffffff1916827bffffffffffffffffffffffffffffffffffffffffffffffffffffffff1916148061047357507f5b5e139f000000000000000000000000000000000000000000000000000000007bffffffffffffffffffffffffffffffffffffffffffffffffffffffff1916827bffffffffffffffffffffffffffffffffffffffffffffffffffffffff1916145b80610483575061048282610e75565b5b9050919050565b606060008054610499906125bd565b80601f01602080910402602001604051908101604052809291908181526020018280546104c5906125bd565b80156105125780601f106104e757610100808354040283529160200191610512565b820191906000526020600020905b8154815290600101906020018083116104f557829003601f168201915b5050505050905090565b600061052782610edf565b610566576040517f08c379a000000000000000000000000000000000000000000000000000000000815260040161055d90612661565b60405180910390fd5b6004600083815260200190815260200160002060009054906101000a900473ffffffffffffffffffffffffffffffffffffffff169050919050565b60006105ac826107bb565b90508073ffffffffffffffffffffffffffffffffffffffff168373ffffffffffffffffffffffffffffffffffffffff16141561061d576040517f08c379a0000000000000000000000000000000000000000000000000000000008152600401610614906126f3565b60405180910390fd5b8073ffffffffffffffffffffffffffffffffffffffff1661063c610f4b565b73ffffffffffffffffffffffffffffffffffffffff16148061066b575061066a81610665610f4b565b610ce3565b5b6106aa576040517f08c379a00000000000000000000000000000000000000000000000000000000081526004016106a190612785565b60405180910390fd5b6106b48383610f53565b505050565b6106ca6106c4610f4b565b8261100c565b610709576040517f08c379a000000000000000000000000000000000000000000000000000000000815260040161070090612817565b60405180910390fd5b6107148383836110ea565b505050565b61073483838360405180602001604052806000815250610a7f565b505050565b3373ffffffffffffffffffffffffffffffffffffffff16610759826107bb565b73ffffffffffffffffffffffffffffffffffffffff16146107af576040517f08c379a00000000000000000000000000000000000000000000000000000000081526004016107a690612883565b60405180910390fd5b6107b881611351565b50565b6000806002600084815260200190815260200160002060009054906101000a900473ffffffffffffffffffffffffffffffffffffffff169050600073ffffffffffffffffffffffffffffffffffffffff168173ffffffffffffffffffffffffffffffffffffffff161415610864576040517f08c379a000000000000000000000000000000000000000000000000000000000815260040161085b90612915565b60405180910390fd5b80915050919050565b60008073ffffffffffffffffffffffffffffffffffffffff168273ffffffffffffffffffffffffffffffffffffffff1614156108de576040517f08c379a00000000000000000000000000000000000000000000000000000000081526004016108d5906129a7565b60405180910390fd5b600360008373ffffffffffffffffffffffffffffffffffffffff1673ffffffffffffffffffffffffffffffffffffffff168152602001908152602001600020549050919050565b61092d610f4b565b73ffffffffffffffffffffffffffffffffffffffff1661094b6109ad565b73ffffffffffffffffffffffffffffffffffffffff16146109a1576040517f08c379a000000000000000000000000000000000000000000000000000000000815260040161099890612a13565b60405180910390fd5b6109ab60006113a4565b565b6000600760009054906101000a900473ffffffffffffffffffffffffffffffffffffffff16905090565b6060600180546109e6906125bd565b80601f0160208091040260200160405190810160405280929190818152602001828054610a12906125bd565b8015610a5f5780601f10610a3457610100808354040283529160200191610a5f565b820191906000526020600020905b815481529060010190602001808311610a4257829003601f168201915b5050505050905090565b610a7b610a74610f4b565b838361146a565b5050565b610a90610a8a610f4b565b8361100c565b610acf576040517f08c379a0000000000000000000000000000000000000000000000000000000008152600401610ac690612817565b60405180910390fd5b610adb848484846115d7565b50505050565b6060610aec82610edf565b610b2b576040517f08c379a0000000000000000000000000000000000000000000000000000000008152600401610b2290612aa5565b60405180910390fd5b6000600660008481526020019081526020016000208054610b4b906125bd565b80601f0160208091040260200160405190810160405280929190818152602001828054610b77906125bd565b8015610bc45780601f10610b9957610100808354040283529160200191610bc4565b820191906000526020600020905b815481529060010190602001808311610ba757829003601f168201915b505050505090506000610bd5611633565b9050600081511415610beb578192505050610c2e565b600082511115610c20578082604051602001610c08929190612b01565b60405160208183030381529060405292505050610c2e565b610c298461164a565b925050505b919050565b610c3b610f4b565b73ffffffffffffffffffffffffffffffffffffffff16610c596109ad565b73ffffffffffffffffffffffffffffffffffffffff1614610caf576040517f08c379a0000000000000000000000000000000000000000000000000000000008152600401610ca690612a13565b60405180910390fd5b610cbb826008546116f1565b610cc76008548261170f565b60086000815480929190610cda90612b54565b91905055505050565b6000600560008473ffffffffffffffffffffffffffffffffffffffff1673ffffffffffffffffffffffffffffffffffffffff16815260200190815260200160002060008373ffffffffffffffffffffffffffffffffffffffff1673ffffffffffffffffffffffffffffffffffffffff16815260200190815260200160002060009054906101000a900460ff16905092915050565b60085481565b610d85610f4b565b73ffffffffffffffffffffffffffffffffffffffff16610da36109ad565b73ffffffffffffffffffffffffffffffffffffffff1614610df9576040517f08c379a0000000000000000000000000000000000000000000000000000000008152600401610df090612a13565b60405180910390fd5b600073ffffffffffffffffffffffffffffffffffffffff168173ffffffffffffffffffffffffffffffffffffffff161415610e69576040517f08c379a0000000000000000000000000000000000000000000000000000000008152600401610e6090612c0f565b60405180910390fd5b610e72816113a4565b50565b60007f01ffc9a7000000000000000000000000000000000000000000000000000000007bffffffffffffffffffffffffffffffffffffffffffffffffffffffff1916827bffffffffffffffffffffffffffffffffffffffffffffffffffffffff1916149050919050565b60008073ffffffffffffffffffffffffffffffffffffffff166002600084815260200190815260200160002060009054906101000a900473ffffffffffffffffffffffffffffffffffffffff1673ffffffffffffffffffffffffffffffffffffffff1614159050919050565b600033905090565b816004600083815260200190815260200160002060006101000a81548173ffffffffffffffffffffffffffffffffffffffff021916908373ffffffffffffffffffffffffffffffffffffffff160217905550808273ffffffffffffffffffffffffffffffffffffffff16610fc6836107bb565b73ffffffffffffffffffffffffffffffffffffffff167f8c5be1e5ebec7d5bd14f71427d1e84f3dd0314c0f7b2291e5b200ac8c7c3b92560405160405180910390a45050565b600061101782610edf565b611056576040517f08c379a000000000000000000000000000000000000000000000000000000000815260040161104d90612ca1565b60405180910390fd5b6000611061836107bb565b90508073ffffffffffffffffffffffffffffffffffffffff168473ffffffffffffffffffffffffffffffffffffffff1614806110d057508373ffffffffffffffffffffffffffffffffffffffff166110b88461051c565b73ffffffffffffffffffffffffffffffffffffffff16145b806110e157506110e08185610ce3565b5b91505092915050565b8273ffffffffffffffffffffffffffffffffffffffff1661110a826107bb565b73ffffffffffffffffffffffffffffffffffffffff1614611160576040517f08c379a000000000000000000000000000000000000000000000000000000000815260040161115790612d33565b60405180910390fd5b600073ffffffffffffffffffffffffffffffffffffffff168273ffffffffffffffffffffffffffffffffffffffff1614156111d0576040517f08c379a00000000000000000000000000000000000000000000000000000000081526004016111c790612dc5565b60405180910390fd5b6111db838383611783565b6111e6600082610f53565b6001600360008573ffffffffffffffffffffffffffffffffffffffff1673ffffffffffffffffffffffffffffffffffffffff16815260200190815260200160002060008282546112369190612de5565b925050819055506001600360008473ffffffffffffffffffffffffffffffffffffffff1673ffffffffffffffffffffffffffffffffffffffff168152602001908152602001600020600082825461128d9190612e19565b92505081905550816002600083815260200190815260200160002060006101000a81548173ffffffffffffffffffffffffffffffffffffffff021916908373ffffffffffffffffffffffffffffffffffffffff160217905550808273ffffffffffffffffffffffffffffffffffffffff168473ffffffffffffffffffffffffffffffffffffffff167fddf252ad1be2c89b69c2b068fc378daa952ba7f163c4a11628f55a4df523b3ef60405160405180910390a461134c838383611788565b505050565b61135a8161178d565b600060066000838152602001908152602001600020805461137a906125bd565b9050146113a1576006600082815260200190815260200160002060006113a09190611deb565b5b50565b6000600760009054906101000a900473ffffffffffffffffffffffffffffffffffffffff16905081600760006101000a81548173ffffffffffffffffffffffffffffffffffffffff021916908373ffffffffffffffffffffffffffffffffffffffff1602179055508173ffffffffffffffffffffffffffffffffffffffff168173ffffffffffffffffffffffffffffffffffffffff167f8be0079c531659141344cd1fd0a4f28419497f9722a3daafe3b4186f6b6457e060405160405180910390a35050565b8173ffffffffffffffffffffffffffffffffffffffff168373ffffffffffffffffffffffffffffffffffffffff1614156114d9576040517f08c379a00000000000000000000000000000000000000000000000000000000081526004016114d090612ebb565b60405180910390fd5b80600560008573ffffffffffffffffffffffffffffffffffffffff1673ffffffffffffffffffffffffffffffffffffffff16815260200190815260200160002060008473ffffffffffffffffffffffffffffffffffffffff1673ffffffffffffffffffffffffffffffffffffffff16815260200190815260200160002060006101000a81548160ff0219169083151502179055508173ffffffffffffffffffffffffffffffffffffffff168373ffffffffffffffffffffffffffffffffffffffff167f17307eab39ab6107e8899845ad3d59bd9653f200f220920489ca2b5937696c31836040516115ca9190611f82565b60405180910390a3505050565b6115e28484846110ea565b6115ee848484846118aa565b61162d576040517f08c379a000000000000000000000000000000000000000000000000000000000815260040161162490612f4d565b60405180910390fd5b50505050565b606060405180602001604052806000815250905090565b606061165582610edf565b611694576040517f08c379a000000000000000000000000000000000000000000000000000000000815260040161168b90612fdf565b60405180910390fd5b600061169e611633565b905060008151116116be57604051806020016040528060008152506116e9565b806116c884611a32565b6040516020016116d9929190612b01565b6040516020818303038152906040525b915050919050565b61170b828260405180602001604052806000815250611b93565b5050565b61171882610edf565b611757576040517f08c379a000000000000000000000000000000000000000000000000000000000815260040161174e90613071565b60405180910390fd5b8060066000848152602001908152602001600020908051906020019061177e929190611e2b565b505050565b505050565b505050565b6000611798826107bb565b90506117a681600084611783565b6117b1600083610f53565b6001600360008373ffffffffffffffffffffffffffffffffffffffff1673ffffffffffffffffffffffffffffffffffffffff16815260200190815260200160002060008282546118019190612de5565b925050819055506002600083815260200190815260200160002060006101000a81549073ffffffffffffffffffffffffffffffffffffffff021916905581600073ffffffffffffffffffffffffffffffffffffffff168273ffffffffffffffffffffffffffffffffffffffff167fddf252ad1be2c89b69c2b068fc378daa952ba7f163c4a11628f55a4df523b3ef60405160405180910390a46118a681600084611788565b5050565b60006118cb8473ffffffffffffffffffffffffffffffffffffffff16611bee565b15611a25578373ffffffffffffffffffffffffffffffffffffffff1663150b7a026118f4610f4b565b8786866040518563ffffffff1660e01b815260040161191694939291906130e6565b6020604051808303816000875af192505050801561195257506040513d601f19601f8201168201806040525081019061194f9190613147565b60015b6119d5573d8060008114611982576040519150601f19603f3d011682016040523d82523d6000602084013e611987565b606091505b506000815114156119cd576040517f08c379a00000000000000000000000000000000000000000000000000000000081526004016119c490612f4d565b60405180910390fd5b805181602001fd5b63150b7a0260e01b7bffffffffffffffffffffffffffffffffffffffffffffffffffffffff1916817bffffffffffffffffffffffffffffffffffffffffffffffffffffffff191614915050611a2a565b600190505b949350505050565b60606000821415611a7a576040518060400160405280600181526020017f30000000000000000000000000000000000000000000000000000000000000008152509050611b8e565b600082905060005b60008214611aac578080611a9590612b54565b915050600a82611aa591906131a3565b9150611a82565b60008167ffffffffffffffff811115611ac857611ac76122a3565b5b6040519080825280601f01601f191660200182016040528015611afa5781602001600182028036833780820191505090505b5090505b60008514611b8757600182611b139190612de5565b9150600a85611b2291906131d4565b6030611b2e9190612e19565b60f81b818381518110611b4457611b43613205565b5b60200101907effffffffffffffffffffffffffffffffffffffffffffffffffffffffffffff1916908160001a905350600a85611b8091906131a3565b9450611afe565b8093505050505b919050565b611b9d8383611c11565b611baa60008484846118aa565b611be9576040517f08c379a0000000000000000000000000000000000000000000000000000000008152600401611be090612f4d565b60405180910390fd5b505050565b6000808273ffffffffffffffffffffffffffffffffffffffff163b119050919050565b600073ffffffffffffffffffffffffffffffffffffffff168273ffffffffffffffffffffffffffffffffffffffff161415611c81576040517f08c379a0000000000000000000000000000000000000000000000000000000008152600401611c7890613280565b60405180910390fd5b611c8a81610edf565b15611cca576040517f08c379a0000000000000000000000000000000000000000000000000000000008152600401611cc1906132ec565b60405180910390fd5b611cd660008383611783565b6001600360008473ffffffffffffffffffffffffffffffffffffffff1673ffffffffffffffffffffffffffffffffffffffff1681526020019081526020016000206000828254611d269190612e19565b92505081905550816002600083815260200190815260200160002060006101000a81548173ffffffffffffffffffffffffffffffffffffffff021916908373ffffffffffffffffffffffffffffffffffffffff160217905550808273ffffffffffffffffffffffffffffffffffffffff16600073ffffffffffffffffffffffffffffffffffffffff167fddf252ad1be2c89b69c2b068fc378daa952ba7f163c4a11628f55a4df523b3ef60405160405180910390a4611de760008383611788565b5050565b508054611df7906125bd565b6000825580601f10611e095750611e28565b601f016020900490600052602060002090810190611e279190611eb1565b5b50565b828054611e37906125bd565b90600052602060002090601f016020900481019282611e595760008555611ea0565b82601f10611e7257805160ff1916838001178555611ea0565b82800160010185558215611ea0579182015b82811115611e9f578251825591602001919060010190611e84565b5b509050611ead9190611eb1565b5090565b5b80821115611eca576000816000905550600101611eb2565b5090565b6000604051905090565b600080fd5b600080fd5b60007fffffffff0000000000000000000000000000000000000000000000000000000082169050919050565b611f1781611ee2565b8114611f2257600080fd5b50565b600081359050611f3481611f0e565b92915050565b600060208284031215611f5057611f4f611ed8565b5b6000611f5e84828501611f25565b91505092915050565b60008115159050919050565b611f7c81611f67565b82525050565b6000602082019050611f976000830184611f73565b92915050565b600081519050919050565b600082825260208201905092915050565b60005b83811015611fd7578082015181840152602081019050611fbc565b83811115611fe6576000848401525b50505050565b6000601f19601f8301169050919050565b600061200882611f9d565b6120128185611fa8565b9350612022818560208601611fb9565b61202b81611fec565b840191505092915050565b600060208201905081810360008301526120508184611ffd565b905092915050565b6000819050919050565b61206b81612058565b811461207657600080fd5b50565b60008135905061208881612062565b92915050565b6000602082840312156120a4576120a3611ed8565b5b60006120b284828501612079565b91505092915050565b600073ffffffffffffffffffffffffffffffffffffffff82169050919050565b60006120e6826120bb565b9050919050565b6120f6816120db565b82525050565b600060208201905061211160008301846120ed565b92915050565b612120816120db565b811461212b57600080fd5b50565b60008135905061213d81612117565b92915050565b6000806040838503121561215a57612159611ed8565b5b60006121688582860161212e565b925050602061217985828601612079565b9150509250929050565b60008060006060848603121561219c5761219b611ed8565b5b60006121aa8682870161212e565b93505060206121bb8682870161212e565b92505060406121cc86828701612079565b9150509250925092565b6000602082840312156121ec576121eb611ed8565b5b60006121fa8482850161212e565b91505092915050565b61220c81612058565b82525050565b60006020820190506122276000830184612203565b92915050565b61223681611f67565b811461224157600080fd5b50565b6000813590506122538161222d565b92915050565b600080604083850312156122705761226f611ed8565b5b600061227e8582860161212e565b925050602061228f85828601612244565b9150509250929050565b600080fd5b600080fd5b7f4e487b7100000000000000000000000000000000000000000000000000000000600052604160045260246000fd5b6122db82611fec565b810181811067ffffffffffffffff821117156122fa576122f96122a3565b5b80604052505050565b600061230d611ece565b905061231982826122d2565b919050565b600067ffffffffffffffff821115612339576123386122a3565b5b61234282611fec565b9050602081019050919050565b82818337600083830152505050565b600061237161236c8461231e565b612303565b90508281526020810184848401111561238d5761238c61229e565b5b61239884828561234f565b509392505050565b600082601f8301126123b5576123b4612299565b5b81356123c584826020860161235e565b91505092915050565b600080600080608085870312156123e8576123e7611ed8565b5b60006123f68782880161212e565b94505060206124078782880161212e565b935050604061241887828801612079565b925050606085013567ffffffffffffffff81111561243957612438611edd565b5b612445878288016123a0565b91505092959194509250565b600067ffffffffffffffff82111561246c5761246b6122a3565b5b61247582611fec565b9050602081019050919050565b600061249561249084612451565b612303565b9050828152602081018484840111156124b1576124b061229e565b5b6124bc84828561234f565b509392505050565b600082601f8301126124d9576124d8612299565b5b81356124e9848260208601612482565b91505092915050565b6000806040838503121561250957612508611ed8565b5b60006125178582860161212e565b925050602083013567ffffffffffffffff81111561253857612537611edd565b5b612544858286016124c4565b9150509250929050565b6000806040838503121561256557612564611ed8565b5b60006125738582860161212e565b92505060206125848582860161212e565b9150509250929050565b7f4e487b7100000000000000000000000000000000000000000000000000000000600052602260045260246000fd5b600060028204905060018216806125d557607f821691505b602082108114156125e9576125e861258e565b5b50919050565b7f4552433732313a20617070726f76656420717565727920666f72206e6f6e657860008201527f697374656e7420746f6b656e0000000000000000000000000000000000000000602082015250565b600061264b602c83611fa8565b9150612656826125ef565b604082019050919050565b6000602082019050818103600083015261267a8161263e565b9050919050565b7f4552433732313a20617070726f76616c20746f2063757272656e74206f776e6560008201527f7200000000000000000000000000000000000000000000000000000000000000602082015250565b60006126dd602183611fa8565b91506126e882612681565b604082019050919050565b6000602082019050818103600083015261270c816126d0565b9050919050565b7f4552433732313a20617070726f76652063616c6c6572206973206e6f74206f7760008201527f6e6572206e6f7220617070726f76656420666f7220616c6c0000000000000000602082015250565b600061276f603883611fa8565b915061277a82612713565b604082019050919050565b6000602082019050818103600083015261279e81612762565b9050919050565b7f4552433732313a207472616e736665722063616c6c6572206973206e6f74206f60008201527f776e6572206e6f7220617070726f766564000000000000000000000000000000602082015250565b6000612801603183611fa8565b915061280c826127a5565b604082019050919050565b60006020820190508181036000830152612830816127f4565b9050919050565b7f4e6f74206f776e65720000000000000000000000000000000000000000000000600082015250565b600061286d600983611fa8565b915061287882612837565b602082019050919050565b6000602082019050818103600083015261289c81612860565b9050919050565b7f4552433732313a206f776e657220717565727920666f72206e6f6e657869737460008201527f656e7420746f6b656e0000000000000000000000000000000000000000000000602082015250565b60006128ff602983611fa8565b915061290a826128a3565b604082019050919050565b6000602082019050818103600083015261292e816128f2565b9050919050565b7f4552433732313a2062616c616e636520717565727920666f7220746865207a6560008201527f726f206164647265737300000000000000000000000000000000000000000000602082015250565b6000612991602a83611fa8565b915061299c82612935565b604082019050919050565b600060208201905081810360008301526129c081612984565b9050919050565b7f4f776e61626c653a2063616c6c6572206973206e6f7420746865206f776e6572600082015250565b60006129fd602083611fa8565b9150612a08826129c7565b602082019050919050565b60006020820190508181036000830152612a2c816129f0565b9050919050565b7f45524337323155524953746f726167653a2055524920717565727920666f722060008201527f6e6f6e6578697374656e7420746f6b656e000000000000000000000000000000602082015250565b6000612a8f603183611fa8565b9150612a9a82612a33565b604082019050919050565b60006020820190508181036000830152612abe81612a82565b9050919050565b600081905092915050565b6000612adb82611f9d565b612ae58185612ac5565b9350612af5818560208601611fb9565b80840191505092915050565b6000612b0d8285612ad0565b9150612b198284612ad0565b91508190509392505050565b7f4e487b7100000000000000000000000000000000000000000000000000000000600052601160045260246000fd5b6000612b5f82612058565b91507fffffffffffffffffffffffffffffffffffffffffffffffffffffffffffffffff821415612b9257612b91612b25565b5b600182019050919050565b7f4f776e61626c653a206e6577206f776e657220697320746865207a65726f206160008201527f6464726573730000000000000000000000000000000000000000000000000000602082015250565b6000612bf9602683611fa8565b9150612c0482612b9d565b604082019050919050565b60006020820190508181036000830152612c2881612bec565b9050919050565b7f4552433732313a206f70657261746f7220717565727920666f72206e6f6e657860008201527f697374656e7420746f6b656e0000000000000000000000000000000000000000602082015250565b6000612c8b602c83611fa8565b9150612c9682612c2f565b604082019050919050565b60006020820190508181036000830152612cba81612c7e565b9050919050565b7f4552433732313a207472616e736665722066726f6d20696e636f72726563742060008201527f6f776e6572000000000000000000000000000000000000000000000000000000602082015250565b6000612d1d602583611fa8565b9150612d2882612cc1565b604082019050919050565b60006020820190508181036000830152612d4c81612d10565b9050919050565b7f4552433732313a207472616e7366657220746f20746865207a65726f2061646460008201527f7265737300000000000000000000000000000000000000000000000000000000602082015250565b6000612daf602483611fa8565b9150612dba82612d53565b604082019050919050565b60006020820190508181036000830152612dde81612da2565b9050919050565b6000612df082612058565b9150612dfb83612058565b925082821015612e0e57612e0d612b25565b5b828203905092915050565b6000612e2482612058565b9150612e2f83612058565b9250827fffffffffffffffffffffffffffffffffffffffffffffffffffffffffffffffff03821115612e6457612e63612b25565b5b828201905092915050565b7f4552433732313a20617070726f766520746f2063616c6c657200000000000000600082015250565b6000612ea5601983611fa8565b9150612eb082612e6f565b602082019050919050565b60006020820190508181036000830152612ed481612e98565b9050919050565b7f4552433732313a207472616e7366657220746f206e6f6e20455243373231526560008201527f63656976657220696d706c656d656e7465720000000000000000000000000000602082015250565b6000612f37603283611fa8565b9150612f4282612edb565b604082019050919050565b60006020820190508181036000830152612f6681612f2a565b9050919050565b7f4552433732314d657461646174613a2055524920717565727920666f72206e6f60008201527f6e6578697374656e7420746f6b656e0000000000000000000000000000000000602082015250565b6000612fc9602f83611fa8565b9150612fd482612f6d565b604082019050919050565b60006020820190508181036000830152612ff881612fbc565b9050919050565b7f45524337323155524953746f726167653a2055524920736574206f66206e6f6e60008201527f6578697374656e7420746f6b656e000000000000000000000000000000000000602082015250565b600061305b602e83611fa8565b915061306682612fff565b604082019050919050565b6000602082019050818103600083015261308a8161304e565b9050919050565b600081519050919050565b600082825260208201905092915050565b60006130b882613091565b6130c2818561309c565b93506130d2818560208601611fb9565b6130db81611fec565b840191505092915050565b60006080820190506130fb60008301876120ed565b61310860208301866120ed565b6131156040830185612203565b818103606083015261312781846130ad565b905095945050505050565b60008151905061314181611f0e565b92915050565b60006020828403121561315d5761315c611ed8565b5b600061316b84828501613132565b91505092915050565b7f4e487b7100000000000000000000000000000000000000000000000000000000600052601260045260246000fd5b60006131ae82612058565b91506131b983612058565b9250826131c9576131c8613174565b5b828204905092915050565b60006131df82612058565b91506131ea83612058565b9250826131fa576131f9613174565b5b828206905092915050565b7f4e487b7100000000000000000000000000000000000000000000000000000000600052603260045260246000fd5b7f4552433732313a206d696e7420746f20746865207a65726f2061646472657373600082015250565b600061326a602083611fa8565b915061327582613234565b602082019050919050565b600060208201905081810360008301526132998161325d565b9050919050565b7f4552433732313a20746f6b656e20616c7265616479206d696e74656400000000600082015250565b60006132d6601c83611fa8565b91506132e1826132a0565b602082019050919050565b60006020820190508181036000830152613305816132c9565b905091905056fea26469706673582212204f0b190a5fa66eac1f6c9ae78df173948b2b9087b38bb70f7556eb7412003c6e64736f6c634300080b0033",
  "immutableReferences": {},
  "source": "pragma solidity >=0.4.22 <0.9.0;\n\nimport \"@openzeppelin/contracts/token/ERC721/extensions/ERC721URIStorage.sol\";\nimport \"@openzeppelin/contracts/access/Ownable.sol\";\n\ncontract Collection is ERC721URIStorage, Ownable {\n\n    uint256 public globalMinted;\n\n    constructor(\n        address owner,\n        string memory name,\n        string memory symbol\n    ) Ownable() ERC721(name, symbol) {\n        transferOwnership(owner);\n    }\n\n    function mint(address to, string memory tokenURI) public onlyOwner{\n        _safeMint(to,globalMinted);\n        _setTokenURI(globalMinted, tokenURI);\n        globalMinted++;\n    }\n\n    function burn(uint256 tokenId) public {\n        require(ownerOf(tokenId) == msg.sender, \"Not owner\");\n        _burn(tokenId);\n    }\n}",
  "sourcePath": "/root/Simple-NFT-Collection/contracts/Collection.sol",
  "compiler": {
    "name": "solc",
    "version": "0.8.11+commit.d7f03943.Emscripten.clang"
  },
  "schemaVersion": "3.4.4",
  "updatedAt": "2022-02-15T20:59:31.522Z",
  "networkType": "ethereum",
  "devdoc": {
    "kind": "dev",
    "methods": {
      "approve(address,uint256)": {
        "details": "See {IERC721-approve}."
      },
      "balanceOf(address)": {
        "details": "See {IERC721-balanceOf}."
      },
      "getApproved(uint256)": {
        "details": "See {IERC721-getApproved}."
      },
      "isApprovedForAll(address,address)": {
        "details": "See {IERC721-isApprovedForAll}."
      },
      "name()": {
        "details": "See {IERC721Metadata-name}."
      },
      "owner()": {
        "details": "Returns the address of the current owner."
      },
      "ownerOf(uint256)": {
        "details": "See {IERC721-ownerOf}."
      },
      "renounceOwnership()": {
        "details": "Leaves the contract without owner. It will not be possible to call `onlyOwner` functions anymore. Can only be called by the current owner. NOTE: Renouncing ownership will leave the contract without an owner, thereby removing any functionality that is only available to the owner."
      },
      "safeTransferFrom(address,address,uint256)": {
        "details": "See {IERC721-safeTransferFrom}."
      },
      "safeTransferFrom(address,address,uint256,bytes)": {
        "details": "See {IERC721-safeTransferFrom}."
      },
      "setApprovalForAll(address,bool)": {
        "details": "See {IERC721-setApprovalForAll}."
      },
      "supportsInterface(bytes4)": {
        "details": "See {IERC165-supportsInterface}."
      },
      "symbol()": {
        "details": "See {IERC721Metadata-symbol}."
      },
      "tokenURI(uint256)": {
        "details": "See {IERC721Metadata-tokenURI}."
      },
      "transferFrom(address,address,uint256)": {
        "details": "See {IERC721-transferFrom}."
      },
      "transferOwnership(address)": {
        "details": "Transfers ownership of the contract to a new account (`newOwner`). Can only be called by the current owner."
      }
    },
    "version": 1
  },
  "userdoc": {
    "kind": "user",
    "methods": {},
    "version": 1
  }
}